:100000000C9462000C94DB050C94B4050C948A00EB
:100010000C948A000C948A000C948A000C948A0038
:100020000C948A000C948A000C948A000C948A0028
:100030000C948A000C948A000C948A000C948A0018
:100040000C946A050C948A000C948A000C948A0023
:100050000C948A000C948A000C948A000C948A00F8
:100060000C948A000C948A000000000024002700F1
:100070002A0000000000250028002B0000000000DE
:1000800023002600290004040404040404040202DA
:100090000202020203030303030301020408102007
:1000A0004080010204081020010204081020000012
:1000B0000008000201000003040700000000000027
:1000C00000007E0A11241FBECFEFD8E0DEBFCDBFF7
:1000D00011E0A0E0B1E0EEE5F8E102C005900D927C
:1000E000A83BB107D9F722E0A8EBB1E001C01D920F
:1000F000A73AB207E1F710E0C2E6D0E004C02197CA
:10010000FE010E94270CC136D107C9F70E940206E2
:100110000C942D0C0C940000AF92BF92CF92DF9202
:10012000EF92FF920F931F93CF93DF936C017B01AC
:100130008B01040F151FEB015E01AE18BF08C0173D
:10014000D10759F06991D601ED91FC910190F081B0
:10015000E02DC6010995892B79F7C501DF91CF9173
:100160001F910F91FF90EF90DF90CF90BF90AF90D5
:100170000895833081F028F4813099F08230A9F01D
:1001800008958730A9F08830C9F08430B1F48091A7
:1001900080008F7D03C0809180008F7780938000E6
:1001A000089584B58F7784BD089584B58F7DFBCF86
:1001B0008091B0008F778093B00008958091B00057
:1001C0008F7DF9CFCF93DF93282F30E0F901E255EF
:1001D000FF4F8491F901E656FF4FD491F901EA5798
:1001E000FF4FC491CC23A1F081110E94B900EC2FE4
:1001F000F0E0EE0FFF1FE458FF4FA591B491EC9192
:10020000ED2381E090E009F480E0DF91CF91089543
:1002100080E090E0FACF1F93CF93DF93282F30E058
:10022000F901E255FF4F8491F901E656FF4FD49151
:10023000F901EA57FF4FC491CC23A9F0162F811181
:100240000E94B900EC2FF0E0EE0FFF1FEE58FF4FB9
:10025000A591B4918FB7F894EC91111108C0D09585
:10026000DE23DC938FBFDF91CF911F910895DE2BAA
:10027000F8CFCF93DF9390E0FC01E656FF4F249137
:100280008A579F4FFC0184918823D1F090E0880F1A
:10029000991FFC01E859FF4FA591B491FC01EE585C
:1002A000FF4FC591D491623071F49FB7F8943C919F
:1002B000822F809583238C93E8812E2B28839FBFE8
:1002C000DF91CF9108958FB7F894EC912E2B2C935A
:1002D0008FBFF6CF3FB7F8948091B9019091BA01E2
:1002E000A091BB01B091BC0126B5A89B05C02F3FD2
:1002F00019F00196A11DB11D3FBFBA2FA92F982F4C
:100300008827BC01CD01620F711D811D911D42E046
:10031000660F771F881F991F4A95D1F708958F920E
:100320009F92AF92BF92CF92DF92EF92FF924B01DA
:100330005C010E946A016B017C010E946A016C19D8
:100340007D098E099F09683E734081059105A8F3D8
:1003500021E0821A9108A108B10888EEC80E83E056
:10036000D81EE11CF11C81149104A104B10429F7E9
:10037000FF90EF90DF90CF90BF90AF909F908F90C5
:10038000089581E08093690261E084E00E940B019E
:100390006AEF70E080E090E00E948F0160E084E00E
:1003A0000C940B010895089590E080E00895FC01FD
:1003B00030E020E040E255E090812F303105B1F08F
:1003C0008181963039F14CF49530F1F02F5F3F4F39
:1003D00031962031310581F714C09730E9F0903221
:1003E000A9F7853079F080E28083F0CF862F9630B0
:1003F00089F01CF4953041F00895973069F09032FF
:1004000081F3089586E0F0CF803211F085E0ECCFE3
:1004100087E0EACF5083DACF4083D8CFFC018081D8
:100420009181A281B3818F3F2FEF9207A207B2077C
:1004300011F480E008952FB7892B8A2B8B2B79F448
:10044000F8948091510290915202A0915302B09180
:1004500054022FBF80839183A283B383EACFF894A1
:100460008091510290915202A0915302B091540296
:100470002FBF4081518162817381841B950BA60B34
:10048000B70B4597A105B105A0F28FEF9FEFDC01F7
:1004900080839183A283B38381E008958F929F929A
:1004A000AF92BF920F931F93CF93DF93CDB7DEB779
:1004B000A1970FB6F894DEBF0FBECDBF19A2423090
:1004C00008F44AE08E010F5D1F4F842E912CB12C51
:1004D000A12CA50194010E94CE0BE62FB901CA01FF
:1004E000EA3044F5E05DD801EE938D01232B242BF7
:1004F000252B79F790E080E0109769F0FD010190DD
:100500000020E9F73197AF014A1B5B0BBD018FE873
:1005100092E00E948C00A1960FB6F894DEBF0FBE49
:10052000CDBFDF91CF911F910F91BF90AF909F9062
:100530008F900895E95CD7CFFC0101900020E9F786
:100540003197AF01481B590BBC018FE892E00C9426
:100550008C00CF93DF93EC0160E08E810E940B0151
:1005600061E08E810E940B0160E08E810E940B0190
:100570008BE891E00197F1F7DF91CF910895CF9249
:10058000DF92EF92FF920F931F93CF93DF936C0153
:100590007C0187E0E80EF11CD0E0C0E0062F10E0FF
:1005A000B8010C2E02C0759567950A94E2F7617048
:1005B000F70181917F010E940B012196C430D10582
:1005C00079F7C601DF91CF911F910F91FF90EF90C6
:1005D000DF90CF900C94A902CF92DF92EF92FF921E
:1005E0000F931F93CF93DF93EC01F62E642F8C8132
:1005F0000E940B018D818F3F19F060E00E940B017A
:100600000F2D10E08F8584FF25C06E0187E0C80E96
:10061000D11CF12CE12CB8010E2C02C07595679508
:100620000A94E2F76170F60181916F010E940B015B
:10063000FFEFEF1AFF0A88E0E816F10461F7CE0138
:10064000DF91CF911F910F91FF90EF90DF90CF90AE
:100650000C94A902B80184E0759567958A95E1F735
:10066000CE010E94BF026F2DCE01DF91CF911F916D
:100670000F91FF90EF90DF90CF900C94BF0240E07D
:10068000682F8FE892E00C94EC0281E00E943F0317
:100690008BE39FE10197F1F70895CF93DF938230C9
:1006A00029F490919E02986090939E028093A202FA
:1006B0001092A30280E48093A40280E18093A502BB
:1006C00080E58093A60261E0809193020E94390147
:1006D000809194028F3F19F061E00E94390161E03E
:1006E000809195020E943901CFE8D2E09E012F58F7
:1006F000324080919E0284FD0BC084E090E0219600
:100700002817390744F461E08E810E943901EECF49
:1007100088E090E0F4CF8BE39DE00197F1F760E093
:10072000809193020E940B0160E0809195020E94EB
:100730000B01809194028F3F19F060E00E940B0141
:1007400080919E0284FD34C063E08FE892E00E94B5
:10075000BF02CBE4D6E4CE010197F1F763E08FE866
:1007600092E00E94BF022197F1F763E08FE892E0E8
:100770000E94BF0283E592E00197F1F762E08FE803
:1007800092E00E94BF0280919E0280620E943F031D
:1007900084E080939F028CE00E943F030E94450307
:1007A00082E08093A00286E0DF91CF910C943F031A
:1007B00080620E943F038BE496E40197F1F78091F9
:1007C0009E0280620E943F0383E592E00197F1F769
:1007D00080919E0280620E943F03D5CF9091A20239
:1007E000691710F06FEF690FE62FF0E0E157FD4F4A
:1007F0009489890F80680C943F03BF92CF92DF9257
:10080000EF92FF920F931F93CF93DF937B01C090E2
:100810007F02D0906E028D3008F079C0E82FF0E0B2
:10082000EC5EFB4F0C94270C8F047D047D048C043C
:100830007A0477047704770477047A048C0421041B
:10084000890480E291E090937F02C1E090E2C912B6
:1008500001C0C0E0803209F051C0D4E0F8EEEF16DC
:10086000F3E0FF0658F4D3E084E6E816F10430F430
:10087000D1E09AE0E916F10408F0D2E010928E027D
:1008800010927D0200E110E00D1B110902581D4F6E
:10089000F801B080108260E080E00E94EE038EE7F5
:1008A00092E00E949C02F801B08261E080E00E9428
:1008B000EE038DE692E00E949C0260E080E18D1BD9
:1008C0000E94EE03B70190E080E04AE00E944E02F1
:1008D000C0927F02D0926E028C2FDF91CF911F9138
:1008E0000F91FF90EF90DF90CF90BF90089580E23E
:1008F00093E0A9CF84E09EE2A6CFC0E080936E0291
:1009000081E0E0E2DE1201C080E0C82BA6CF90E0DB
:100910009ACF80E292E097CFC0E083E0EFCFC0E0D3
:100920009CCF41E00E94EC0281E090E008950F939B
:100930001F93CF93DF938B0128E0829FC001112486
:1009400080640E943F03E801085F1F4F69918FE8B0
:1009500092E00E949104C017D107C1F7DF91CF91B7
:100960001F910F9108950F931F93CF9306E011E00D
:10097000C1E0B8018C2F0E949704CF5F085F1F4F22
:10098000C830B9F7EEE7F2E0ADE6B2E080E281937D
:100990008D9392E0EE38F907D1F7CF911F910F9127
:1009A00008950F931F93CF93DF93C0E1D0E004E04D
:1009B00010E00E94E80ABE010E94130C8093CD0152
:1009C0000E94E80AB8010E94130C282F8093CE01E0
:1009D00040914F02509150023091CD01EFECF1E087
:1009E00090E080E04817590749F06081361303C052
:1009F00061812617F1F201963296F4CFDF91CF9103
:100A00001F910F910895BF92CF92DF92EF92FF92C4
:100A10000F931F93CF93DF93CDB7DEB728970FB611
:100A2000F894DEBF0FBECDBF10E000E083E0C82E1B
:100A3000D12C98E0B92ECE0101967C010F5F1F4F9B
:100A4000C801B6010E94FF0BF7012B2D11922A95C8
:100A5000E9F723E0E3E0F1E06130710531F0623065
:100A6000710541F423E0E0E0F1E0D70101900D923F
:100A70002A95E1F78130910539F583E0E3E0F1E073
:100A8000DE01159601900D928A95E1F7B7018FEF7F
:100A9000800F0E9497040830110581F661E070E034
:100AA00080E090E00E948F0128960FB6F894DEBF98
:100AB0000FBECDBFDF91CF911F910F91FF90EF90AF
:100AC000DF90CF90BF900895029701F783E0E0E0B8
:100AD000F1E0D6CF1F920F920FB60F9211242F93F1
:100AE0003F938F939F93AF93BF93809151029091C7
:100AF0005202A0915302B09154023091B80123E008
:100B0000230F2D3758F50196A11DB11D2093B80173
:100B10008093510290935202A0935302B0935402D7
:100B20008091B9019091BA01A091BB01B091BC0133
:100B30000196A11DB11D8093B9019093BA01A093B4
:100B4000BB01B093BC01BF91AF919F918F913F9139
:100B50002F910F900FBE0F901F90189526E8230F2E
:100B60000296A11DB11DD2CF1F920F920FB60F9208
:100B700011242F933F934F935F936F937F938F93A2
:100B80009F93AF93BF93EF93FF93E0914001F09158
:100B900041010995FF91EF91BF91AF919F918F9185
:100BA0007F916F915F914F913F912F910F900FBE69
:100BB0000F901F9018951F920F920FB60F9211244D
:100BC0002F933F934F935F936F937F938F939F9355
:100BD000AF93BF93EF93FF93E0913E01F0913F01FC
:100BE0000995FF91EF91BF91AF919F918F917F9167
:100BF0006F915F914F913F912F910F900FBE0F908A
:100C00001F901895CF93DF9300D01F92CDB7DEB71A
:100C1000789484B5826084BD84B5816084BD85B5D7
:100C2000826085BD85B5816085BD80916E008160E3
:100C300080936E0010928100809181008260809389
:100C4000810080918100816080938100809180008B
:100C50008160809380008091B10084608093B100B6
:100C60008091B00081608093B00080917A008460B0
:100C700080937A0080917A00826080937A008091DC
:100C80007A00816080937A0080917A0080688093F6
:100C90007A001092C10062E080E00E94390161E0B8
:100CA00082E00E94390161E084E00E94390161E044
:100CB00082E00E940B0162E082E00E94390162E062
:100CC00080E00E94390162E087E00E94390181ECF6
:100CD00091E090933F0180933E01809169008C7F69
:100CE000816080936900E89A0E94B30482E00E94C8
:100CF0004D038CE591E00E949C0261E080E00E943F
:100D0000EE030E940305109263021092620268EEE5
:100D100073E080E090E00E948F010E944503EAE0CA
:100D20004E2E512C612C712CF2E08F2E912C73E001
:100D3000272E312C90916C0280916B0290FDF5C2B0
:100D4000811179C080916A028823E9F060E080E037
:100D50000E94EE030E9445038CE691E00E949C02F3
:100D600061E080E00E94EE0387E791E00E949C0230
:100D700087E00E94E200892B31F480916C028F5F42
:100D800080936C02D7CF62E370E080E090E00E9435
:100D90008F0180916A0221E0822780936A0280910C
:100DA0006902882309F43FC00E9403050E946A017A
:100DB000CB010E94ED0A88EE93E0A0E0B0E08093C2
:100DC000440190934501A0934601B0934701A1E0EF
:100DD000B0E0B0936302A093620283E08093CF01FE
:100DE000B1E0B093D00182E08093D101B093D20101
:100DF000B093D301B093D4011092D501B093D60132
:100E000084E090E09093500280934F0290926102B0
:100E1000809260020E94D10410926402E1E0E093AB
:100E20006B021092690280E090E0892B09F482CF76
:100E30000E9400007CCF60E080E00E94EE0382E030
:100E40000E94E200892B09F0B8C085E692E00E947A
:100E50000E02882309F18091640281111DC08091E6
:100E6000620290916302009709F4A3C00197A1F474
:100E700080916002909161028130910509F488C0EF
:100E800008F481C08230910509F487C0039709F402
:100E90008BC081E08093640260E088E00E94EE03F2
:100EA00080E00E94E200892B09F0A4C08CE592E06A
:100EB0000E940E02882319F18091640281111FC0E3
:100EC00020916202309163022115310509F471C04D
:100ED00021303105A1F4809160029091610281304E
:100EE000910509F478C008F471C08230910509F4C5
:100EF00077C0039709F479C081E0809364022FB72B
:100F0000F8948091510290915202A0915302B091B5
:100F100054022FBF20914401309145014091460178
:100F200050914701C0905802D0905902E0905A0267
:100F3000F0905B028C199D09AE09BF09281739078B
:100F40004A075B0708F06FCF8091620290916302BD
:100F5000019709F084C080914F02909150029B83C9
:100F60008A83FC01EE0FFF1FE153FE4FAFECB1E0AF
:100F7000AE17BF0709F447C0DF019E918E919183A0
:100F80008083FD01F3CF309261022092600281CF15
:100F900010926102109260027CCF21E030E0309329
:100FA00061022093600275CF90926102809260028C
:100FB00070CF81E080936902BDCE109265021092DD
:100FC0006602109267021092680266CF3093610247
:100FD0002093600291CF90926102809260028CCF48
:100FE000309261022092600287CF109261021092CB
:100FF000600282CF10925C0210925D0210925E023B
:1010000010925F027CCF8091D1019091D201909398
:10101000D0018093CF018091600290916102813074
:10102000910509F45BC06091CF018130910508F40E
:1010300051C08230910509F457C0039709F456C096
:101040007091CF01703138F46091D00181E090E06F
:10105000643008F44FC0909263028092620280E193
:10106000ADEBB1E01D928A95E9F780916202909113
:1010700063028230910509F47AC08330910509F446
:10108000B8C0019709F09FC040914F0250915002A3
:10109000EFECF1E030E020E04217530709F4CDC057
:1010A0006081862F90E0A1818C7F992783549E4F89
:1010B000A80FB92FB11D6370660F81E090E001C0E9
:1010C000880F6A95EAF79C91892B8C932F5F3F4F8D
:1010D0003296E2CF61506093CF01B2CF8091D001C0
:1010E00081508093D001ACCF6F5FF5CF8091D0015C
:1010F0008F5FF7CFAA81BB818A179B0750F4A2812B
:101100007A1304C0A3816A1709F4A5CF0196329619
:10111000F1CF8091CD017813A2CF8091CE016813D9
:101120009ECFEA81FB813196FB83EA83F0935002E4
:10113000E0934F02A9E0B0E00E94BB0BA301920133
:101140000E94CE0B20934401309345014093460109
:10115000509347012A813B812034310528F0309299
:101160006302209262027BCF0E94D10478CF0E945A
:10117000450360E080E00E94EE0383E891E00E9476
:101180009C0261E080E00E94EE038EE891E00E9404
:101190009C0261E088E00E94EE0360914F02709132
:1011A000500290E080E04AE00E944E0281E080938D
:1011B0006902109263021092620264EF71E080E0B3
:1011C00090E00E948F012FB7F89480915102909186
:1011D0005202A0915302B09154022FBF8093580243
:1011E00090935902A0935A02B0935B02109264024A
:1011F0001ACE0E94450360E080E00E94EE0387E97A
:1012000091E00E949C0261E080E00E94EE038EE883
:1012100091E00E949C0261E088E00E94EE036091F0
:101220004F027091500290E080E04AE00E944E022E
:101230001092630210926202C6CF8091CD01E82F16
:10124000F0E09091CE01EC7FFF27E354FE4FE90FD1
:10125000F11D8370880F22E030E002C0220F331F9F
:101260008A95E2F7C9019081892B80830E9445030A
:10127000F12CE12C570133E0A322BB24AA0CBB1CA8
:10128000C7018C7FDC01A354BE4F6D011982F601AA
:10129000F0812F2F30E00A2C02C0359527950A9453
:1012A000E2F7237033273B832A83D60111960C91F2
:1012B00010E00A2C02C0159507950A94E2F7037016
:1012C00011272330310521F4E2E0F0E0FB83EA83CB
:1012D0000330110511F402E010E069818E2D0E94A7
:1012E000EE032A813B81232B21F460E201151105D5
:1012F00031F06A81660F3A81630F6150600F8FE8A9
:1013000092E00E94910482E0C80ED11C9981913034
:1013100049F4AFEFEA1AFA0AB0E1EB16F10409F06A
:10132000A9CF51CFB1E0B983B2CF81114EC0609146
:1013300056027091570293E0769567959A95E1F77A
:1013400080916A0281113FC0809143010E94FD0398
:1013500080916A028823C1F00E94450360E080E02A
:101360000E94EE038AEA91E00E949C0261E080E024
:101370000E94EE0387E791E00E949C0287E00E94B2
:10138000E200892B09F4F9CC62E370E080E090E0A0
:101390000E948F0180916A02E1E08E2780936A02A9
:1013A00080916902882309F43ECD0E94B304F1E0E4
:1013B000F0934301F0936B0210926902109257026E
:1013C0001092560230CD80E0C1CF20915502298382
:1013D00065E0213009F060E28DE692E00E94D701DD
:1013E000398165E0323009F060E28EE792E00E94D8
:1013F000D7018091420181508093420181111BC02D
:10140000898181113FC00E94440B23E030E040E01D
:1014100050E00E949C0B672B682B692B89F582E0BA
:10142000809355020E94440BA30192010E949C0BE1
:101430006E5F6093420180916902882349F0809138
:101440004301833018F483E08093430110926902D2
:10145000609156027091570283E0769567958A9560
:10146000E1F7809143010E94FD038823A9F01092C7
:101470006B0264E670E080E090E00E948F01D3CCC4
:1014800081E0CECF109255020E94440BA30192013D
:101490000E949C0B665FCDCF80914301982F977F70
:1014A0009230B1F481E08093430180915602909193
:1014B00057020196909357028093560261E0809103
:1014C0007002803209F060E082E00E940B01D1CF0F
:1014D0009BEF980F933030F490916E02903261F050
:1014E0008BE0E1CF8B3040F090916E02903211F49E
:1014F00087E0D9CF8C30A1F38F5FD5CFEFE8F2E052
:101500001382128284E591E09183808383E1848356
:101510008FEF85838DE086838CE087838BE08087E7
:101520008AE0818789E0828713861486158616866D
:10153000178681E00C944D038F929F92AF92BF92D9
:10154000CF92DF92EF92FF92CF93DF93EC0168810D
:1015500079818A819B81611571058105910521F44D
:1015600064E279ED8BE597E02DE133EF41E050E067
:101570000E949C0B49015A019B01AC01A7EAB1E40E
:101580000E94BB0B6B017C01ACEEB4EFA501940192
:101590000E94C90BDC01CB018C0D9D1DAE1DBF1D32
:1015A000B7FF03C00197A109B04888839983AA8334
:1015B000BB839F77DF91CF91FF90EF90DF90CF902B
:1015C000BF90AF909F908F9008950E949C0A0895BD
:1015D00088E491E00E949C0A0895B0E0A0E0809326
:1015E000480190934901A0934A01B0934B0108959B
:1015F0008F929F92AF92BF92CF92DF92EF92FF9223
:10160000CF93DF93EC01688179818A819B81611599
:1016100071058105910521F464E279ED8BE597E090
:101620002DE133EF41E050E00E949C0B49015A014B
:101630009B01AC01A7EAB1E40E94BB0B6B017C01EA
:10164000ACEEB4EFA50194010E94C90BC60ED71EE3
:10165000E81EF91EF7FE06C081E0C81AD108E108AD
:1016600080E8F80AC882D982EA82FB82C701B60103
:101670009F77DF91CF91FF90EF90DF90CF90BF9059
:10168000AF909F908F9008958F929F92AF92BF924C
:10169000CF92DF92EF92FF9260914C0170914D01D9
:1016A00080914E0190914F01611571058105910561
:1016B00021F464E279ED8BE597E02DE133EF41E031
:1016C00050E00E949C0B49015A019B01AC01A7EA22
:1016D000B1E40E94BB0B6B017C01ACEEB4EFA50141
:1016E00094010E94C90BC60ED71EE81EF91EF7FE14
:1016F00006C081E0C81AD108E10880E8F80AC09263
:101700004C01D0924D01E0924E01F0924F01C70181
:10171000B6019F77FF90EF90DF90CF90BF90AF9092
:101720009F908F90089560934C0170934D0180932A
:101730004E0190934F010895052E97FB1EF40094DF
:101740000E94B30B57FD07D00E94CE0B07FC03D0BD
:101750004EF40C94B30B50954095309521953F4F26
:101760004F4F5F4F089590958095709561957F4F8D
:101770008F4F9F4F08950E94F00BA59F900DB49F2F
:10178000900DA49F800D911D11240895B7FF0C9416
:10179000BB0B0E94BB0B821B930B0895A1E21A2E78
:1017A000AA1BBB1BFD010DC0AA1FBB1FEE1FFF1F05
:1017B000A217B307E407F50720F0A21BB30BE40B55
:1017C000F50B661F771F881F991F1A9469F760959C
:1017D0007095809590959B01AC01BD01CF01089556
:1017E000A29FB001B39FC001A39F700D811D112462
:1017F000911DB29F700D811D1124911D0895AA1B8A
:10180000BB1B51E107C0AA1FBB1FA617B70710F0EB
:10181000A61BB70B881F991F5A95A9F7809590951D
:10182000BC01CD01089597FB072E16F4009407D054
:1018300077FD09D00E94FF0B07FC05D03EF4909580
:1018400081959F4F0895709561957F4F0895EE0F94
:0E185000FF1F0590F491E02D0994F894FFCF4E
:10185E00040A040E0E0E0C0C000E1C0C1A130C0CAB
:10186E00000C0C0C0C0E0C0C001E0D1F10001E0D8F
:10187E001F10000000001F1F1F1F1F1F1F1F03032D
:10188E000303030303031818181818181818D201A5
:10189E00D2010101E8030000010000000100000078
:1018AE000000000091048C00D401D301205377690D
:1018BE007463682047616D65426F7900536E616B8A
:1018CE00652047616D6500507265737320537461B6
:1018DE0072740020596F75206C6F736521004C6512
:1018EE006E6774683A2000596F7520776F6E2E20E0
:1018FE00436F6E677261747A21004A756D70696EFE
:08190E00672047616D650000D0
:00000001FF
